:100000000C9421050C9468050C9468050C94680503
:100010000C9468050C9468050C9468050C946805AC
:100020000C9468050C9468050C94C02B0C94942CCB
:100030000C9439230C9468050C9468050C9468059D
:100040000C9468050C9468050C9468050C9468057C
:100050000C9468050C949F230C9468050C94680517
:100060000C9468050C9468050C9468050C9468055C
:100070000C9468050C9468050C9468050C9468054C
:100080000C9468050C9468050C9468050C9468053C
:100090000C9468050C9468050C9468050C9468052C
:1000A0000C9468050C9468050C9468050763423647
:1000B000B79BD8A71A39685618AEBAAB558C1D3CF9
:1000C000B7CC5763BD6DEDFD753EF6177231BF00BD
:1000D0000000803F05A84CCDB2D44EB93836A902F5
:1000E0000C50B9918688083CA6AAAA2ABE00000036
:1000F000803F696E69745F6261636B6C6967687485
:100100005F70696E28290A00165C1E001F0020001F
:1001100021002200230024002B0014001A000800F4
:10012000150017001C001800390004001600070015
:1001300009000A000B000D00E10064001D001B0017
:100140000600190005001100E000E300E2008B004A
:1001500000002C002C0000002500260027002D00A8
:100160002E0035002A004B000C00120013002F0057
:100170003000310000004E000E000F00330034004C
:100180003200280000000000100036003700380060
:100190008700E500520000008A000000E6000151DF
:1001A000E400500051004F0035003A003B003C0095
:1001B0003D003E003F004000010001000100010041
:1001C00001000100010001000100010002510100D5
:1001D0000100010001000100010001000100010017
:1001E0000100010001000100010001000100010007
:1001F00000000100010000004100420043004400F3
:10020000450001004C00A9000100AC00AE00AB00AD
:100210000100A8000000AA00010001000100010087
:1002200001000100000000000100010001000100C8
:10023000010001004B00000001000000010001511D
:1002400001004A004E004D00C05CCD5CCE5CCF5C2E
:10025000D05CD15CD25CD35C0100010001000100E4
:10026000005C0100010001000100010002510100D9
:100270000100010001000100015101000100010025
:100280000100010001000100010001000100010066
:100290000000C35CC35C0000D45C010001000100ED
:1002A00001000100C25CC95C010001000100010005
:1002B000010001000000CA5C010001000100010012
:1002C0000100010000000000010001000100010028
:1002D00001000100C75C00000100000001000151A5
:1002E0000100C65CC85CC55C44454255473A206481
:1002F000697361626C65642E0A0044454255473A51
:1003000020656E61626C65642E0A000A0025303833
:1003100062003A200025303258000A722F632030E4
:10032000313233343536370A007267626C69676878
:10033000742074696D65722064697361626C652EE6
:100340000A007267626C696768742074696D65720F
:1003500020656E61626C65642E0A007267626C696A
:100360006768742073657420687376205B4E4F4510
:100370004550524F4D5D3A2025752C25752C25751D
:100380000A007267626C696768742073657420681C
:100390007376205B454550524F4D5D3A2025752CB4
:1003A00025752C25750A007267626C696768742070
:1003B0007261696E626F7720736574206873763A34
:1003C0002025642C25642C25642C25750A00726771
:1003D000626C696768742064697361626C65205B34
:1003E000454550524F4D5D3A207267626C696768AF
:1003F000745F636F6E6669672E656E61626C6520FF
:100400003D2025750A007267626C69676874206513
:100410006E61626C65205B454550524F4D5D3A20E0
:100420007267626C696768745F636F6E6669672E76
:10043000656E61626C65203D2025750A00726762F9
:100440006C6967687420746F67676C65205B4545ED
:1004500050524F4D5D3A207267626C696768745FF5
:10046000636F6E6669672E656E61626C65203D2004
:1004700025750A007267626C69676874206D6F6425
:1004800065205B4E4F454550524F4D5D3A202575D6
:100490000A007267626C69676874206D6F6465201A
:1004A0005B454550524F4D5D3A2025750A007267F5
:1004B000626C696768745F696E6974207267626CE8
:1004C000696768745F636F6E6669672E6D6F6465D8
:1004D000203D20302E205772697465206465666166
:1004E000756C742076616C75657320746F2045455A
:1004F00050524F4D2E0A007267626C696768745FD4
:10050000696E6974206565636F6E666967206973DB
:10051000206E6F7420656E61626C65642E0A0072D5
:1005200067626C696768745F696E6974207374616F
:100530007274210A007267626C696768745F696E21
:1005400069742063616C6C65642E0A007267626C6A
:10055000696768745F636F6E6669672E737065653F
:1005600064203D2025640A007267626C69676874C4
:100570005F636F6E6669672E76616C203D2025642F
:100580000A007267626C696768745F636F6E6669A0
:10059000672E736174203D2025640A007267626CC7
:1005A000696768745F636F6E6669672E687565203A
:1005B0003D2025640A007267686C696768745F6330
:1005C0006F6E6669672E6D6F6465203D2025640A35
:1005D000007267626C696768745F636F6E666967F3
:1005E0002E656E61626C65203D2025640A0072678D
:1005F000626C696768745F636F6E66696720454502
:1006000050524F4D3A0A0000047F3F1F6432146479
:100610003214783C1E1E140A05FFAA7F5540626101
:10062000636B6C6967687420737465703A20257514
:100630000A006261636B6C69676874206469736146
:10064000626C650A006261636B6C6967687420653F
:100650006E61626C650A006261636B6C69676874E5
:1006600020746F67676C653A2025750A00626163C4
:100670006B6C696768742064656372656173653A61
:100680002025750A006261636B6C69676874206974
:100690006E6372656173653A2025750A0000010179
:1006A0000101010101010102020202020202020231
:1006B0000303030303030303040404040404040501
:1006C00005050505060606060607070707070808C5
:1006D0000808090909090A0A0A0B0B0B0C0C0C0D76
:1006E0000D0D0E0E0E0F0F0F10101111111212130F
:1006F000131414151516161717181819191A1A1B8A
:100700001B1C1D1D1E1E1F202021222223242425E8
:100710002626272829292A2B2C2D2D2E2F30313221
:1007200032333435363738393A3B3C3D3E3F404131
:1007300042434445464748494A4C4D4E4F50515319
:1007400054555658595A5B5D5E5F616264656668D0
:10075000696B6C6D6F7072737577787A7B7D7E8054
:1007600082838587888A8C8E8F91939596989A9CA0
:100770009EA0A2A3A5A7A9ABADAFB1B3B5B7BABCB4
:10078000BEC0C2C4C6C9CBCDCFD1D4D6D8DBDDDF85
:10079000E2E4E7E9EBEEF0F3F5F8FAFDFF0A0025F5
:1007A00030325820006B6579626F6172645F7265E8
:1007B000706F72743A20000A0025303258006B6561
:1007C00079626F6172645F7365745F6C65643A200F
:1007D0000064656C5F6B65795F6269743A20636180
:1007E0006E27742064656C3A20253032580A006107
:1007F00064645F6B65795F6269743A2063616E2738
:1008000074206164643A20253032580A00290A00B5
:100810002575002F002575005D2800256400200047
:10082000256400200025640020002564007C00254C
:10083000303258006D6F7573656B6579205B62743B
:100840006E7C782079207620685D287265702F6133
:10085000636C293A205B005B735D004B6579626FC6
:100860006172642073746172742E0A005B575D00BC
:100870005B535D005B525D005B445D005B435D006C
:10088000040330000000140343006C007500650091
:1008900062006F00610072006400000014034300F6
:1008A0006C007500650062006F00610072006400FA
:1008B00000000403090409025B00030100A0FA0917
:1008C000040000010301010009211101000122407F
:1008D000000705810308000A090401000103000064
:1008E0000009211101000122BC000705820320003C
:1008F0000A0904020002030000000921110100019D
:1009000022220007058303200001070503032000BE
:10091000011201100100000008EDC1702301000167
:100920000203010631FF0974A1010975150026FFB4
:10093000009520750881020976150026FF00952094
:1009400075089102C005010902A10185020901A1F2
:100950000005091901290515002501950575018175
:1009600002950175038101050109300931158125C1
:100970007F95027508810609381581257F950175D7
:10098000088106050C0A38021581257F9501750836
:100990008106C0C005010980A101850319012AB79C
:1009A00000150126B700950175108100C0050C09DE
:1009B00001A101850419012AA002150126A00295B2
:1009C0000175108100C005010906A1018505050713
:1009D00019E029E715002501950875018102050731
:1009E000190029EF1500250195F075018102050810
:1009F000190129059505750191029501750391016C
:100A0000C005010906A101050719E029E715002520
:100A10000195087501810295017508810105071985
:100A20000029FF150026FF009506750881000508BE
:100A3000190129059505750191029501750391012B
:100A4000C00011241FBECFEFDAE0DEBFCDBF04B679
:100A500003FE27C08091230390912403A0912503D6
:100A6000B09126038730904BA740B04BD1F4109241
:100A7000230310922403109225031092260314BE20
:100A800084B7877F84BF0FB6F894A89580916000E3
:100A9000886180936000109260000FBEE0E0F8E390
:100AA000099511E0A0E0B1E0E2EDF4E602C00590A6
:100AB0000D92AC3CB107D9F723E0ACECB1E001C03A
:100AC0001D92A332B207E1F70E94E6280C942B3264
:100AD0000C940000FF93EF93E091CC01F091CD01D5
:100AE000309709F00995EF91FF910895FC018591E8
:100AF000803011F0EFDFFBCF0895FF27E0E230E216
:100B000047FF0CC0419597FF09C0EDE260957095D5
:100B100080959095611D711D811D911D27FF02C05B
:100B2000219530E350E2AA27660F771F881F991F8F
:100B3000AA1FA41710F0A41B63955A95A9F7AA3011
:100B400008F0A95FA05DAF93F3956115710581056C
:100B5000910541F7ED3211F4EF93F395F21718F484
:100B60003F93F395FBCF8F91B5DFFA95E1F70895A9
:100B7000E991F9918591803021F0853219F0AADF51
:100B8000F9CF089520E0E89455915532C1F35033E0
:100B900011F4689455915A3348F4505390F3220F4E
:100BA000022E220F220F200D250FF4CF0EF42195D7
:100BB00089919991533619F3533729F1533559F1E6
:100BC000BC0188279927E8945C3621F48991999192
:100BD00068945591543639F446EF7EF077FF0DC096
:100BE0008FEF9FEF0AC055374AE039F0583540E1A2
:100BF00021F0523642E009F00895FF93EF937DDF34
:100C0000EF91FF91B7CFFF93EF93FC01819180307B
:100C1000B9F360DFFBCFFF93EF9368DFF1CFDF9392
:100C2000CF93CDB7DEB72596A3DFCF91DF9108959F
:100C30000C943A0982EF90E00E947605569A279A22
:100C4000549A5E982F985C980895811104C05E9A1A
:100C50002F9A5C9A08955E982F985C980895249A2C
:100C600008950E9439090C942F06249A81FF02C02E
:100C70002C9A08952C98089581E0089581E00895B4
:100C80000C943E061F93CF93DF9300D000D00F92B9
:100C9000CDB7DEB749835A836B832091F4018981F4
:100CA0009A8121111BC06623A9F00E942420182FCD
:100CB000682F89819A810E94CF1F69817A81812F53
:100CC0000F900F900F900F900F90DF91CF911F9189
:100CD0000C94FE060E94FC1F182FEFCF0E942420C8
:100CE00069817A81EDCFFC014081518162817381FC
:100CF00084810C9442060E948521811102C00E94C9
:100D00002B220E941A060C9431060C94180681E0DE
:100D100008950C948706CF93C82F0E9435068C2F18
:100D2000CF910C94890608950E940F1B0E94930690
:100D30002FEF84E39CE0215080409040E1F700C019
:100D400000000C94C3230F931F93CF93DF93EC0108
:100D50000E9473068C01BE010E944006882341F167
:100D6000BE01C8010E942414882311F1BE01C801EC
:100D70000E9465148823E1F0BE01C8010E94881515
:100D80008823B1F0BE01C8010E94E511882381F0DB
:100D90008A81882341F101308CE5180779F00E3DF6
:100DA0008CE51807E9F001151C45E9F40E9494064A
:100DB00080E0DF91CF911F910F91089590918C0267
:100DC000892F8E7F90FF816080938C0280FF05C009
:100DD0008AEF92E00E947605EBCF88EE92E0FACFA0
:100DE0000E942B22E5CFCE01DF91CF911F910F9171
:100DF0000C943C0690E080E008950895E72FF0E021
:100E00009AE0899FE00DF11D112483E0EE0FFF1F92
:100E10008A95E1F7E60FF11DEE0FFF1FE85FFE4F29
:100E2000859194910895FC01EE0FFF1FE55FFC4F43
:100E3000859194910895CF93DF930E94FE060E94BE
:100E40005F08EC01811521E5920708F049C0811582
:100E500030E5930708F0D9C0883E910508F5803E3B
:100E6000910570F5883A910570F4853A910508F07E
:100E7000AEC08130910521F1009711F1049700F582
:100E8000D0E0C0E01DC08F3B910508F4A8C0805C95
:100E90009109C03CD105A0F30E941307EC0110C0DA
:100EA0008115904388F4C11580E2D80708F0A4C0EA
:100EB000C03FD10528F3CF3FD10509F008F49AC00F
:100EC000CE01DF91CF910895C11590E4D90708F0C4
:100ED00099C0CE019927D3FF92C0EC01D86CF0CF16
:100EE000811529E5920760F5811538E5930708F02B
:100EF000D2C0811544E5940778F4C11583E5D8077D
:100F000008F0B0C0C11592E5D90708F09AC0DC2FEF
:100F1000CC27C16FD06AD4CF811525E5920708F49C
:100F2000B5C0811536E5930708F0AACF0E94F608F0
:100F3000C82FD0E0DC2FCC27CC27DF71D062C0CF08
:100F40008D3B9C4509F4ACC0CE3B8CE5D807D0F472
:100F5000CB3B9CE5D90709F4A6C008F0A7C0C11592
:100F60003AE5D30708F08CCF8C2F8F700E94F608DB
:100F700034E0D695C7953A95E1F7CF709C2FEC01F8
:100F8000D0699ECFC03C4CE5D40709F492C060F410
:100F9000CE3B9CE5D90709F48FC0CF3BDC4509F077
:100FA0006FCFC0E0D2ED8CCFCE019056811590422C
:100FB00008F066CF8D2F8F710E94F60890E0982F71
:100FC000882788279F719C012C2BE901B7CFC55A30
:100FD000D0E0CF5ADE4FC881D0E0D06471CFC85A7C
:100FE000D0E0CC0FDD1FCD5DDE4F0990D881C02D44
:100FF000D46466CFD06564CFCE019F704DCFEC0135
:10100000D06C5ECFDF70D06A5BCFE4E096958795B9
:10101000EA95E1F783702C2F26952695237040E200
:10102000249F90011124382B8C2F8370C1E0D0E0D5
:1010300002C0CC0FDD1F8A95E2F7C22BD32BDC68F0
:101040003FCFCE018370992721E030E002C0220F0C
:10105000331F8A95E2F7C695C69580E2C89FE001E6
:101060001124EBCFCE018370992721E030E002C03C
:10107000220F331F8A95E2F7C695C69590E2C99F65
:10108000E0011124C22BD32BDA681ACFD82FCC273A
:10109000C46FD06A15CFD82FCC27C06FD06A10CFBD
:1010A000C0E0D1ED0DCFC0E0D4ED0ACFC0E0D5ED6A
:1010B00007CFC0E0D3ED04CFC0E0D0ED01CF823840
:1010C0009105B1F1B0F48133910509F475C048F48C
:1010D0008932910509F469C08A32910509F473C017
:1010E00008958533910509F459C08933910501F1BB
:1010F0000895833E9105A9F138F4803E9105F9F0F9
:10110000823E910549F10895863E9105A9F1873EF9
:101110009105C9F1843E910519F52091150321FF30
:101120001FC08091140384FD14C087EE90E00895E1
:10113000209114032370A1F080EE90E00895209197
:10114000140320FD47C03091150330FF09C024FF70
:1011500044C090E080E004C02091140322FDF7CF4A
:1011600008952091140322FD3BC03091150330FDFA
:10117000E3CF24FFF5CFEDCF2091140323FFF0CF71
:1011800024FDE7CFD2CF2091140323FD2CC0309152
:10119000150331FFEECF84EE90E008952091140303
:1011A00025FFDECF89E290E008952091140325FF0A
:1011B000D7CF85E390E008952091140326FFD0CF88
:1011C0008AE290E008952091140326FFC9CF81E3BD
:1011D00090E0089589E390E0089583EE90E008950B
:1011E00082EE90E0089586EE90E0089590911403C9
:1011F00092FF06C0282F28712830F9F4877F846079
:1012000093FF06C0282F28712831F1F4877E84616E
:101210002091150320FF06C0382F38713830D9F4DB
:10122000877F816021FF06C0282F28712831D1F4E3
:10123000877E816194FD877E0895282F2471243054
:10124000F9F68B7F8860DCCF282F2471243101F7D9
:101250008B7E8861DDCF382F3171313019F78E7F69
:101260008860E0CF282F2171213121F78E7E88619F
:10127000E1CF08950895E82FF0E0E853FD4F808115
:101280000895CF92DF92EF92FF920F931F93CF9327
:10129000DF938AE193E00E94760588ECE82E82E0F5
:1012A000F82ED0E0C0E095E1C92E93E0D92E0DE0F4
:1012B00013E0DF93CF93DF92CF920E940F0682E17B
:1012C00093E00E947605F70181917F010E946D21D4
:1012D0001F928F931F930F930E940F068BE093E052
:1012E0000E94760521968DB79EB708960FB6F894A2
:1012F0009EBF0FBE8DBFCA30D105D9F6DF91CF9109
:101300001F910F91FF90EF90DF90CF90089580EAAA
:101310008A95F1F70895ACE5B1E061E070E08D9158
:10132000E82FE295EF70F0E041A18F709B0101C0C2
:10133000220F8A95EAF7922F9095942391A382A188
:10134000822B82A381E0A636B80749F7A4E5B1E075
:1013500061E070E08D91E82FE295EF70F0E041A13F
:101360008F709B0101C0220F8A95EAF7922F90950A
:10137000942391A382A1822B82A381E0AC35B8078C
:1013800049F7EEEBF2E0A8ECB2E088EC92E01192C3
:101390001D928E179F07D9F78AE00E945E0A0C946F
:1013A0007B064F925F927F928F929F92AF92BF92F5
:1013B000CF92DF92EF92FF920F931F93CF93DF9321
:1013C0000EEB12E09CE5A92E91E0B92E912CCC24D5
:1013D000C394D12CD8017C90F80111928F01D501D2
:1013E0008D915D01C82FC295CF70D0E099A18F700B
:1013F000760101C0EE0C8A95EAF7892F8E2989A320
:101400008AA18E2C809488218AA30E94870984E572
:10141000482E81E0582E30E020E0F8013197D201CB
:101420004D912D01842F82958F7090E0DC01909674
:101430008C91608190E04F7002C0959587954A9598
:10144000E2F780FD39C08C2D022E01C0880F0A946E
:10145000EAF7862B80832F5F3F4F28303105F9F65E
:1014600089A1882289A28AA1E82AEAA281E0908142
:10147000971101C080E0982AB2E0083C1B0709F0F0
:10148000A9CF292D4AE068EC72E08EEB92E00E9431
:101490005F0A0E948506892DDF91CF911F910F91E0
:1014A000FF90EF90DF90CF90BF90AF909F908F9084
:1014B0007F905F904F90089580E0CBCF0895FF928A
:1014C0000F931F93CF93DF93F82E092F162FD72F4B
:1014D000C42F222349F081E08093D0010E94692328
:1014E0009093CF018093CE018091D0018823A1F009
:1014F0008091CE019091CF010E947523069760F0F4
:10150000EF2DF02FA12FBD2FCE0FDF2FD11DEC1708
:10151000FD0741F41092D001DF91CF911F910F91FF
:10152000FF90089581918D93F2CFAF92BF92CF92A9
:10153000DF92FF920F931F93CF93DF93362F472FA6
:10154000E82FF0E0E356F94F71110DC06491762F4A
:10155000862FDF91CF911F910F91FF90DF90CF9059
:10156000BF90AF900895C72FD0E02491F22E022FA4
:1015700010E056E0659FC0011124EFEFF0E0BF01DD
:101580000E94A831832F90E0880F991F35E5369F80
:10159000D001379FB00D11248A1B9B0B982F990FF8
:1015A000980F6F01CC1ADD0AC09ED001C19EB00D0C
:1015B000D09EB00D11248B2F949FA0011124452F94
:1015C00055276F01C41AD50AC09EA001C19E500DB7
:1015D000D09E500D11245F01A91AB108AC9E600184
:1015E000AD9ED00CBC9ED00C1124CD2CDD24EC196A
:1015F000FD09E09FE001E19FD00DF09FD00D112487
:10160000ED2F62307105A1F048F46115710569F0A4
:101610006130710589F0EB2F852F07C064307105AB
:1016200071F088F066307105B1F76E2F722F91CF8F
:10163000E22F2B2F8D2FF9CFE22F252FF6CFEB2F77
:10164000822F2D2FF2CF2B2F8F2DE52FEECF089548
:10165000CF93DF93762FE901682F842F0E94950A9C
:10166000798368838A83DF91CF9108958091D20234
:10167000982F9E7F29F4817082608093D202089512
:101680008A34E8F381708864F8CF88E090E00C94A5
:10169000EB31CF92DF92EF92FF926B017C010E94BF
:1016A000360BB701A60188E090E0FF90EF90DF9045
:1016B000CF900C940932E2EDF2E083E08083118256
:1016C0008FEF828383831482608171818281938111
:1016D0000C94490B80918C0280FF76C08EEE95E0D1
:1016E0009F938F930E940F0680918C020F900F9012
:1016F00080FF6AC08091D20281701F928F9381ED2A
:1017000095E09F938F930E940F0680918C020F901B
:101710000F900F900F9080FF57C08091D202869556
:101720001F928F9386EB95E09F938F930E940F06F5
:1017300080918C020F900F900F900F9080FF44C00B
:101740008091D3021F928F938CE995E09F938F93A2
:101750000E940F0680918C020F900F900F900F90B7
:1017600080FF32C08091D4021F928F9382E895E06F
:101770009F938F930E940F0680918C020F900F9081
:101780000F900F9080FF20C08091D5021F928F9301
:1017900088E695E09F938F930E940F0680918C02BC
:1017A0000F900F900F900F9080FF0EC08091D60287
:1017B0001F928F938CE495E09F938F930E940F0666
:1017C0000F900F900F900F9008958091D20280FF9C
:1017D00002C08695089580E008958091D6028330F6
:1017E00018F48F5F8093D6026091D2027091D30279
:1017F0008091D4029091D5020C94490B8091D6022D
:10180000882319F081508093D6026091D2027091A2
:10181000D3028091D4029091D5020C94490B60912F
:10182000040170E08091D20280FF0AC08091D5014E
:1018300023E0829FC001112489529D4F0C94B41360
:101840008091D4019091030123E0829FF001112443
:10185000E952FD4F891750F71182108212828F5F73
:101860003396F8CF9091D20290FF14C09091D4019A
:101870002091030133E0939FF0011124E952FD4FC1
:10188000921710F00C940F0C8183608342839F5F4A
:101890003396F6CF0895CF93DF9300D00F92CDB754
:1018A000DEB79091D20290FF0AC09E012F5F3F4F9A
:1018B0000E94280B4B8169818A810E94320C0F9013
:1018C0000F900F90DF91CF910895CF93DF93EC01AC
:1018D0006C8170E090E080E00E948F2F20E030E08B
:1018E0004FE753E40E94B22E2BED3FE049E450E471
:1018F0000E94B8300E9425310E942C2F22EB3AE53D
:101900004CEB5EE30E94452E22E03FE24AEA52E4BD
:101910000E94B8300E945E2F462FE2EDF2E0628115
:1019200081810E944B0C8C818F5F8C83DF91CF91E2
:101930000895CF93DF93EC01E2EDF2E04381628101
:101940008C810E944B0C8C818F5F8C83DF91CF91B7
:1019500008950F931F93CF93DF9300D00F92CDB7CD
:10196000DEB78C018091D10181110AC09E012F5FE9
:101970003F4F4FEF6FEF0E94280B8A818093D10178
:10198000F8016481613069F08091D10140E0662303
:1019900061F040E0623011F44091D10180E060E0FC
:1019A00004C06091D10140E080E00E94320CF80157
:1019B000848190E0019663E070E00E94BC318483F2
:1019C0000F900F900F90DF91CF911F910F9108957D
:1019D0004F925F926F927F928F929F92AF92BF923F
:1019E000CF92DF92EF92FF920F931F93CF93DF93EB
:1019F00000D00F92CDB7DEB7182FD62E042F722E3F
:101A00009091D20290FF46C0E92FE695AE2FB0E04C
:101A1000AA59BE4F8C918093DD019E7F923009F0D0
:101A20004DC09E012F5F3F4F812F0E94280B4B819D
:101A300069818A810E94320C1093D302D092D40221
:101A40000093D502772009F49CC06091D202709176
:101A5000D3028091D4029091D5020E94490B8091CB
:101A60008C0280FF17C08091D5021F928F938091C6
:101A7000D4021F928F938091D3021F928F9382E89A
:101A800093E09F938F930E940F060FB6F894DEBFEA
:101A90000FBECDBF0F900F900F90DF91CF911F9190
:101AA0000F91FF90EF90DF90CF90BF90AF909F90FD
:101AB0008F907F906F905F904F900895823019F4CF
:101AC0000091D502B9CF863019F41091D302B4CF6A
:101AD0008930D9F3893109F0AFCFE9518E2F817068
:101AE000682E8E2F80958170C82EE695F0E0E75E17
:101AF000F94FE590F490412CFF2497EAA92E93E04A
:101B0000B92E60910201461618F00E940F0C94CF76
:101B1000842C912C8E9CC0018F9C900D9E9C900DCE
:101B2000112470E00E94A831512E611028C0560E79
:101B300080918C0280FF11C0FF92EF921F92CF9292
:101B40001F925F921F924F92BF92AF920E940F0618
:101B50000FB6F894DEBF0FBECDBF2091D401820E28
:101B6000911C9401220F331F280D391D29523D4F1E
:101B7000402F6D2D852D0E94280B4394C2CF561AFD
:101B8000D7CF80918C0280FF85CF1F920F931F9239
:101B9000DF921F921F938BE593E073CFE2EDF2E0AB
:101BA0009181282F4381628180E2890F0C94E80C97
:101BB00081E00C94CE0DE2EDF2E09181282F43817B
:101BC000628180EE890F0C94E80C81E00C94DB0DAF
:101BD000E2EDF2E0628121E1620F08F46FEF282F5D
:101BE000438181810C94E80C81E00C94E80DE2EDD6
:101BF000F2E0628121E1621B08F460E0282F43815A
:101C000081810C94E80C81E00C94F70DE2EDF2E098
:101C1000438121E1420F08F44FEF282F6281818137
:101C20000C94E80C81E00C94060EE2EDF2E04381A6
:101C300021E1421B08F440E0282F628181810C944D
:101C4000E80C81E00C94150E20E00C94E80CEF9267
:101C5000FF921F93CF93DF93EC0110E0EE24EA9400
:101C6000F12C60910201161770F00E940F0C9A81FE
:101C70008C8190FF27C08F5F8C83DF91CF911F9164
:101C8000FF90EF9008952091D401422F410F5527E6
:101C9000551FCA019A01220F331F280F391F2952DD
:101CA0003D4F70E0C7010E94BC31962F8C8140915E
:101CB000D5026091D402199F800D11240E94280B37
:101CC0001F5FCFCF8150D8CFAF92BF92CF92DF921C
:101CD000EF92FF920F931F93CF93DF93FC018281CA
:101CE0000FEF80FF01E010E042E1A42E809102019D
:101CF0001817C8F00E940F0C8091D301013009F031
:101D000055C0811102C08091020181508093D3019E
:101D1000DF91CF911F910F91FF90EF90DF90CF90C7
:101D2000BF90AF900895C091D401C12ED12CCC0D9D
:101D3000DD2DD11DCE01880F991FC80FD91FC952A3
:101D4000DD4F198218821A8234E0E32EF12CB12C77
:101D50008091D3018B0D83311CF16A2D0E949A3141
:101D6000892F082E000C990BC816D90691F4809182
:101D7000D5028E9DA0018F9D500D1124559547953C
:101D8000559547959E016091D4028091D3020E949F
:101D9000280BB00EF1E0EF1AF108D1F61F5FA6CFC5
:101DA00087FFDFCF90910201890FDBCF90E0019692
:101DB0006091020170E00E94BC31A8CF1F93CF93C5
:101DC000DF938091D4019091030123E0829FF00181
:101DD0001124E952FD4F891708F449C0D0E0C0E052
:101DE00013E06091020170E0CE0102960E94BC31C6
:101DF0002091D401820F482F50E02091D201022E71
:101E0000000C330BC217D307C4F120910101022E3D
:101E1000000C330B2C173D0784F1819F9001112496
:101E200029523D4F4091D5026091D4028091D30256
:101E30000E94280B2196C530D10599F60E940F0CFF
:101E4000809100019091D201980F9093D20120913E
:101E50000101280F20930101121614F494301CF094
:101E6000819580930001DF91CF911F910895118298
:101E7000108212828F5F3396AECFFA01EE0FFF1FF2
:101E8000E40FF51FE952FD4F118210821282D2CF6A
:101E90000F931F93CF93DF93EC018C819D8101966B
:101EA000817099279D838C8310E005E58091020164
:101EB000181730F0DF91CF911F910F910C940F0CF8
:101EC0002091D401812F90E0AC01420F511D9A0165
:101ED000220F331F240F351F29523D4F4C815D8146
:101EE000840F951F81704091D5026091D402809F2C
:101EF000802D11240E94280B1F5FD8CF0F931F93B2
:101F0000CF93DF93EC0110E000E090910201901775
:101F1000110609F06CF40E940F0C8C8190E0019680
:101F2000817099278C83DF91CF911F910F91089534
:101F30002091D401A801420F511D9A01220F331F95
:101F4000240F351F29523D4F4C816091D40280915E
:101F5000D30296959017110651F04CF0442349F0A6
:101F60004091D5020E94280B0F5F1F4FCECF442314
:101F7000B9F340E0F7CF6091D202669570E04BE094
:101F800050E085E091E00E94D631892B19F481E080
:101F90008093DE010E9469239093D7018093D6013C
:101FA00080918C0280FF08C082E493E09F938F931E
:101FB0000E940F060F900F9008951092DE018091FD
:101FC0008C0280FF08C089E293E09F938F930E9468
:101FD0000F060F900F9008959091D20290FF54C079
:101FE000917081113BC092609093D2026623E9F117
:101FF0006091D2027091D3028091D4029091D50267
:102000000E94490B80918C0280FF0FC08091D20208
:1020100086951F928F9382E994E09F938F930E94FD
:102020000F060F900F900F900F906091D20266955F
:1020300070E04BE050E085E091E00E94D631892BC2
:1020400001F10E94DD0F81E08093D9014091D5021A
:102050006091D4028091D3020C94240E853210F04A
:102060009864C2CF880F982BBFCF80918C0280FFDD
:10207000DCCF8091D20286951F928F9384E794E003
:10208000CCCF0E94BB0FDFCF0895682F9091D20272
:10209000969581E0890F853208F081E00C94EC0F71
:1020A00081E00C944510682F9091D20296958FEFA5
:1020B000890F09F484E20C94EC0F81E00C94531026
:1020C00061E00C94EC0F8091D20281608093D20287
:1020D00080918C0280FF0DC01F9281E08F9386E07B
:1020E00094E09F938F930E940F060F900F900F9094
:1020F0000F908091D20286950C94601060E00C9451
:10210000EC0F8091DC01811160C080918C0280FF16
:1021100014C085E395E09F938F930E940F068091F2
:102120008C020F900F9080FF08C08FE195E09F9385
:102130008F930E940F060F900F900E9485218111AE
:1021400010C080918C0280FF08C087EF94E09F93BD
:102150008F930E940F060F900F900E942B220E94D7
:102160005B0B0E94450B6093D2027093D302809365
:10217000D4029093D5026E7FC1F480918C0280FFCF
:1021800008C08EEA94E09F938F930E940F060F90F1
:102190000F900E945B0B0E94450B6093D2027093DC
:1021A000D3028093D4029093D5020E94360B0E94F2
:1021B0006A0B1092DE018091D20280FF03C08695E7
:1021C0000E947E1081E08093DC0108958091D2020C
:1021D0008E7F8093D2026091D2027091D30280915F
:1021E000D4029091D5020E94490B80918C0280FF0D
:1021F0000FC08091D20281701F928F938EEC93E07A
:102200009F938F930E940F060F900F900F900F9047
:102210000E94DD0F2FEF80E792E021508040904038
:10222000E1F700C000000C940F0C80918C0280FF3D
:1022300010C08091D202809581701F928F938DE3A0
:1022400094E09F938F930E940F060F900F900F9032
:102250000F908091D20280FD0C94E6100C946310D4
:102260000F931F93CF93DF938091DE01882309F4AE
:102270008DC08091DD01E091D202E695E81BE093EC
:10228000D8018230C9F5F0E0EB5EF94FE491CE2F32
:10229000D0E005E61CE08091D901882389F01092F6
:1022A000D9010E9469239E0120953095820F931FCA
:1022B0009093D7018093D6011092DB011092DA013E
:1022C0008091D6019091D7010E9475238C179D07AC
:1022D00008F45CC0E091D601F091D701CE0FDF1F6A
:1022E000D093D701C093D60186ED91E0F801DF913C
:1022F000CF911F910F910994863049F4F0E0EE5E82
:10230000F94FE491CE2FD0E009E91CE0C4CF893029
:1023100051F4E695F0E0E15FF94FE491CE2FD0E083
:1023200007E21EE0B8CF8F3051F4E695F0E0E45FAD
:10233000F94FE491CE2FD0E004E61EE0ACCF85311A
:1023400049F4F0E0E75FF94FE491CE2FD0E00EEDD5
:102350001EE0A1CFC4E3D5E008E41FE0883109F412
:102360009ACF833239F4E7E0F6E0C591D49109EAD7
:102370001CE091CFC4EFD1E00EE71FE0843209F4F6
:102380008ACFC0EDD7E007E21BE085CFDF91CF9188
:102390001F910F910895FA01811101C0FB01099469
:1023A000CF93DF93C82FD62F0E94E50B8C1740F0F8
:1023B0000E94E50B8D1720F4DF91CF910C94501003
:1023C0008C2FDF91CF910C9460100F931F93CF93BC
:1023D0008C01FB01C281CC2309F465C00E94B920A5
:1023E0008272F801E25CFC45E431F10538F4E35D0A
:1023F000FD4C0C94D0310E941511C0E08C2FCF9170
:102400001F910F9108954DE550E160E570E10E9444
:10241000CB11F3CF40E550E16DE570E1F8CF45EE2B
:102420005DE068ED7DE0F3CF48ED5DE065EE7DE0D9
:10243000EECF43E05EE064EF7DE0E9CF44EF5DE0A6
:1024400063E07EE0E4CF41E25EE062E17EE0DFCF88
:1024500042E15EE061E27EE0DACF4EEF5BE06DEEFE
:102460007BE0D5CF4DEE5BE06EEF7BE0D0CF81E03F
:102470000E946010C2CF65E082E00E94D011BDCF03
:1024800068E086E0FACF6EE089E0F7CF64E18FE0A4
:10249000F4CF67E185E1F1CF88E1EACF62E289E13B
:1024A000ECCF83E2E5CFC1E0A9CF0E948521811165
:1024B00002C00E942B220E94B32180930D03803121
:1024C00020F08770886080930D0390910D03892F11
:1024D000817090FF04C0892F8695869586950C940F
:1024E000250680910D03982F987F19F4885F8093BB
:1024F0000D0380910D03816080930D030E94B7212D
:1025000080918C0280FF11C080910D038695869585
:1025100086951F928F9385E896E09F938F930E94F4
:102520000F060F900F900F900F9080910D038695DE
:10253000869586950C94250680910D03982F987F9B
:1025400079F0885080930D03887F91E009F490E042
:1025500080910D0390FB80F980930D030E94B721B9
:1025600080918C0280FF11C080910D038695869525
:1025700086951F928F938DE696E09F938F930E948E
:102580000F060F900F900F900F9080910D0386957E
:10259000869586950C94250680910D0380FD1FC0BD
:1025A000816080930D03813019F489E080930D03DD
:1025B00080910D030E94B72180918C0280FF08C09A
:1025C00085E496E09F938F930E940F060F900F90E3
:1025D00080910D038695869586950C942506089521
:1025E00080910D0380FF14C08E7F80930D030E94A5
:1025F000B72180918C0280FF08C082E396E09F9310
:102600008F930E940F060F900F9080E00C94250688
:102610000895CF93C0910D03C17080918C0280FF0B
:102620000CC01F92CF9387E596E09F938F930E94F3
:102630000F060F900F900F900F90CC2319F0CF91B1
:102640000C94F012CF910C94CC1290910D03892F21
:102650008695869586958F5F8F719770823080F50D
:10266000880F880F880F892B80930D0380910D03AD
:10267000887F91E009F490E080910D0390FB80F950
:1026800080930D030E94B72180918C0280FF11C0BE
:1026900080910D038695869586951F928F938EE186
:1026A00096E09F938F930E940F060F900F900F90CC
:1026B0000F9080910D038695869586950C9425063E
:1026C00090930D03D3CF811181E090910D0397700A
:1026D000282F220F220F220F922B90930D03987F09
:1026E00021E009F420E090910D0320FB90F99093F4
:1026F0000D030C9425060E94631380910D030C9426
:10270000B7213BB1242F209523233BB1432B3FB767
:10271000F894680F791F8617970711F43FBF089543
:10272000FC015191CF01E8E04BB9000000C057FF18
:102730002BB9550F000000C000C000C02BB900C06D
:10274000EA9591F7E8CF2AB1242B2AB99B01220FF1
:10275000331F620F731F0E94811387EC90E0019773
:10276000F1F700C00000089540E80C94A3130F9304
:102770001F93CF93DF93C62FD42F022FFC018281AA
:102780008823C9F06093E1010E9469239093E001DE
:102790008093DF0180E28C0F883008F050C0C77052
:1027A00081E001C0880FCA95EAF7DF91CF911F91B0
:1027B0000F910C9452181091E101161335C08091BD
:1027C000DF019091E0010E947523883C910560F53E
:1027D000C0E2CD0F1D17B9F080E2810F883040F4C0
:1027E000177081E001C0880F1A95EAF70E94591806
:1027F000C83048F481E09D2F977001C0880F9A95EA
:10280000EAF70E945218802F0E943F18C830B8F48F
:10281000D77081E001C0880FDA95EAF7DF91CF9198
:102820001F910F910C94591880E28C0F883038F466
:10283000C77081E001C0880FCA95EAF7EFCFDF913A
:10284000CF911F910F9108959C01CB01233F4CE53F
:10285000340731F190F4283DFCE53F07E9F0293DCC
:102860004CE5340769F1273D3C4579F426E241EE19
:1028700061EE0E94B71380E00895253FFCE53F0715
:10288000B9F090F0263F3C45B9F0FC0182818823E5
:10289000D1F01092E101089527E245EE65EEE9CF0F
:1028A00026E241EE60EEE5CF27E245EE64EEE1CFB1
:1028B00026E241EE62EEDDCF27E245EE66EED9CFAD
:1028C00028E241E0EBCF81E00895CF93DF93EC0164
:1028D000FB018281882309F419C1C230FCE5DF07BE
:1028E000C0F1C6319CE5D90730F09E012A5F3C4516
:1028F0002930310570F50E9498219093150380933B
:102900001403C031ECE5DE0709F4CFC008F05BC06A
:10291000C8308CE5D80709F4B6C088F5C430ECE5BA
:10292000DE0709F4A8C0C0F4C2308CE5D80709F46A
:102930009CC0809114038260C330DC4509F498C0C8
:1029400080911403909115030E94A6210E940F1BF1
:1029500080E0DF91CF910895809114038061C630AB
:10296000ECE5DE0709F484C0809114038860C73069
:10297000DC4508F47DC080911403806279C0CC30BE
:102980008CE5D80709F489C070F4809114038C6039
:10299000CA30ECE5DE0709F46BC008F478C080911A
:1029A00014038E7F65C0CE308CE5D80709F479C05A
:1029B000809114038B7FCF30DC4508F459C080919F
:1029C00014038F7E55C0CB3FECE5DE0709F457C0FA
:1029D00030F5C3318CE5D80709F46FC078F4C13104
:1029E000ECE5DE0709F465C0C231DC4509F0A8CF8B
:1029F0000E940F1B809114038F773AC0C5318CE57C
:102A0000D80709F462C008F476C08091150381608C
:102A1000CA3FDC4509F094CF8093150391CFCF3F97
:102A2000FCE5DF0709F44DC088F4809115038D7F24
:102A3000CD3F9CE5D90781F3809115038E7FCE3F72
:102A4000DC4550F3809115038360E6CFC130FDE58E
:102A5000DF0709F459C008F444C080E0C230DD4506
:102A600009F06ECF0E942D226BCF809114038160FC
:102A70008093140365CF809114038460F9CF809113
:102A800015038260C9CF809114038064F1CF0E9446
:102A90000F1B809114038068EBCF809114038D7F0E
:102AA000E7CF80911403877FE3CF809114038F7D5C
:102AB000DFCF809114038F7BDBCF80911403837F62
:102AC000D7CF809115038C7FA7CF8091140382FB11
:102AD000992790F921E0922790FB82F990FB83F9E6
:102AE000C7CF80911503982F909591708E7F892B79
:102AF00090FB81F991CF0E940F1B90911403892FB5
:102B000097FB87F98058B4CF81E0ACCF81E021CF2B
:102B1000CF93DF93EB0186319C4511F50E94B920DC
:102B20009A81992399F08A7A91E009F490E0909340
:102B3000E201811109C089E20E9494200E940521CE
:102B400080E0DF91CF91089585E3F6CF8091E20197
:102B5000811104C089E20E949B20F0CF85E3FBCF66
:102B600081E0EFCF9093E8018093E7010895E09131
:102B7000E701F091E801309721F00190F081E02D1C
:102B8000099480E00895EF92FF920F931F93CF93E3
:102B9000DF93EC01E091E701F091E801309709F44F
:102BA00046C080912201882341F08091140387FF61
:102BB00004C08881898385E088830280F381E02DC9
:102BC000CE01099580918C0282FF31C080FF04C044
:102BD00085EA97E00E94760510E000E08FE9E82E94
:102BE00087E0F82E80918C0280FF0EC0FE01E00F7E
:102BF000F11F80811F928F93FF92EF920E940F0628
:102C00000F900F900F900F900F5F1F4F083011051E
:102C100049F780918C0280FF0AC08DE997E0DF912F
:102C2000CF911F910F91FF90EF900C947605DF915B
:102C3000CF911F910F91FF90EF900895E091E701E0
:102C4000F091E801309739F022E0DC012C93048008
:102C5000F581E02D099408952091E5013091E60178
:102C60002817390771F09093E6018093E501E09110
:102C7000E701F091E801309721F00680F781E02D1F
:102C8000099408952091E3013091E4012817390750
:102C900071F09093E4018093E301E091E701F091FA
:102CA000E801309721F00084F185E02D0994089522
:102CB00085B7806885BF85B7806885BF089508950A
:102CC00008950C945F1608950C9463160E9458168C
:102CD0000E9460160C94611681E008950E946023A2
:102CE0000E948B090E94E7230E9455120E948110C6
:102CF0000C946416CF93C82F80918C0282FF1EC063
:102D000080FF1CC08EEB97E00E94760580918C02BC
:102D100080FF14C01F92CF9389EB97E09F938F930E
:102D20000E940F0680918C020F900F900F900F90D1
:102D300080FF04C087EB97E00E9476058C2FCF912F
:102D40000C948B06AF92BF92CF92DF92EF92FF92DC
:102D50000F931F93CF93DF93CDB7DEB72A970FB6AC
:102D6000F894DEBF0FBECDBF0E94D1090E946C1641
:102D7000882309F461C08AEEA82E81E0B82E10E005
:102D800000E0C02E802F0E943B09E82EF501D19073
:102D90005F01D81609F44AC080918C0281FD0E941F
:102DA000410980E0FF24F394DE249D2D9F21C9F189
:102DB0008E83CF82EF2081E009F480E088870E9433
:102DC00069238160782F9A8789874E815F81688522
:102DD0008A850E943E17F801E651FE4F8081F82651
:102DE000F0820E9430110E94F6250E94B715909142
:102DF000E901891791F10E94B7158093E9012A969C
:102E00000FB6F894DEBF0FBECDBFDF91CF911F91FB
:102E10000F91FF90EF90DF90CF90BF90AF900C9408
:102E20007A168F5FFF0C883009F0BFCF0F5F1F4FFE
:102E30000A30110509F0A5CF8FEF89838A831B82A1
:102E40000E9469238160782F9D838C8349815A81F8
:102E50006B818D810E943E17C4CF2A960FB6F894DD
:102E6000DEBF0FBECDBFDF91CF911F910F91FF90BD
:102E7000EF90DF90CF90BF90AF900895CF93DF9306
:102E8000CDB7DEB72B970FB6F894DEBF0FBECDBF20
:102E90004F83588769877A878B871E821D8285E0DA
:102EA000FE013796DE01119601900D928A95E1F7A9
:102EB00049815A816B817C818D819E812B960FB6D1
:102EC000F894DEBF0FBECDBFDF91CF910C94AF1D44
:102ED000FC01808191810C946620882309F478C0DC
:102EE0008238B9F40E94B71581FD72C089E30E944F
:102EF00094200E9405212FEF81EE94E02150804024
:102F00009040E1F700C0000089E30E949B200C94F0
:102F100005218338A1F40E94B71580FD59C083E5CF
:102F20000E9494200E9405212FEF81EE94E0215011
:102F300080409040E1F700C0000083E5E6CF843890
:102F4000A1F40E94B71582FD43C087E40E9494203B
:102F50000E9405212FEF81EE94E0215080409040A7
:102F6000E1F700C0000087E4D0CF9CEF980F913AC2
:102F700018F40E949420CBCF90E2980F983050F430
:102F8000877091E001C0990F8A95EAF7892F0E9416
:102F9000BC20BDCFEBE5E80FE33038F4F0E0E754B8
:102FA000FE4F808190E00C942C16E8E5E80FE731A5
:102FB00048F4F0E0EE0FFF1FE557FE4F808191814E
:102FC0000C944216803F20F00E9482240C946925C4
:102FD0000895882309F452C0823871F40E94B7150D
:102FE00081FF4CC089E30E9494200E94052189E35F
:102FF0000E949B200C940521833859F40E94B71538
:1030000080FF3CC083E50E9494200E94052183E557
:10301000EFCF843859F40E94B71582FF2FC087E4A0
:103020000E9494200E94052187E4E2CF9CEF980F34
:10303000913AF0F290E2980F983050F4877091E056
:1030400001C0990F8A95EAF7892F0E94C220D2CF3A
:103050009BE5980F933020F490E080E00C942C16C0
:1030600098E5980F973120F490E080E00C94421698
:10307000803F20F00E94EA240C9469250895CF93A4
:10308000C82F0E946D17C93349F42FEF87EE93E0E4
:10309000215080409040E1F700C000008C2FCF917C
:1030A0000C94E917882321F00E94BC200C94052180
:1030B0000895882321F00E94C2200C9405210895D0
:1030C000BF92CF92DF92EF92FF920F931F93CF9315
:1030D000DF936C01D62FC72FFC01058102950F707D
:1030E000128111110E94D9200E94B220E82E88235B
:1030F00071F01123B1F080E28D0F883090F082E002
:103100000E9450210E94B22091E0E82EE926BC2EB8
:10311000B2949FE0B922EB2DF0E0EF5BFD4C0C94F4
:10312000D031E12CF4CF0C2F0F70C07F11F002953D
:10313000007F1123A9F0002359F080E28D0F883021
:1031400010F0D11109C0802F0E94BC200E940521DF
:103150008D2F0E946D1714C0802F0E94CC20F6CFB7
:103160008D2F0E94E917002359F080E28D0F8830DF
:1031700010F0D1112CC0802F0E94C2200E94052186
:103180002B2D2850330B2430310520F40E94B71525
:103190000E948B06EE2009F4F8C10E94AE2080FD4B
:1031A000F4C1F60112820E94A8200E94331FC601BA
:1031B0000E94CF1A0E94A820DF91CF911F910F91FA
:1031C000FF90EF90DF90CF90BF900C94541F802F12
:1031D0000E94D220D3CFFC2FFF70FF2EC07FC032C1
:1031E00019F0F29480EFF822DD2369F0D13049F133
:1031F000112391F1002351F1F601858180FFA8CFC1
:103200008F70858323C0112381F0011106C00E94B5
:10321000EC208F290E945218B3CF0130C1F70E94D1
:10322000EC208F290E94F220ABCF011106C00E9432
:10323000FB208F2D0E945918A3CF013009F4A0CF95
:10324000F6CF112329F0063008F09ACF8F2DE2CF68
:10325000053008F095CFEDCF002359F3D93349F469
:10326000FFEF27EE33E0F15020403040E1F700C09F
:1032700000008D2F0E94E91783CF8C2F86958695AD
:10328000837069F0813009F07BCF8D2F9C2F937074
:10329000111102C090E080E00E94421671CF8D2F84
:1032A0009C2F9370111102C090E080E00E942C16B8
:1032B00067CF112309F1D53F99F0D63FB9F0D43F3C
:1032C00049F480910E0390910F03816090930F0356
:1032D00080930E038D2F0E9482240E94692550CF77
:1032E00080910E0390910F038260F0CF80910E03C6
:1032F00090910F038460EACFD53F89F0D63FA9F0C3
:10330000D43F49F480910E0390910F038E7F9093E8
:103310000F0380930E038D2F0E94EA24DECF80914D
:103320000E0390910F038D7FF2CF80910E03909149
:103330000F038B7FECCF8C2F837009F041C01111EC
:103340001FCF4D2F429546954770440F440F0D2FC8
:103350000F7010E030E020E0042E04C0000F111FB9
:10336000221F331F0A94D2F760E070E0CB01D4FF34
:103370000FC06FE070E080E090E004C0660F771F40
:10338000881F991F4A95D2F7609570958095909502
:10339000C695C695C370602B712B822B932BC230C0
:1033A00049F058F4C13019F00E94E51EE9CE0E94A0
:1033B000D31EE6CE0E94F71EE3CE0E94D11EE0CEC1
:1033C0008695112311F08C2F8170882309F4D8CEB3
:1033D0004D2F429546954770440F440F0D2F0F70A7
:1033E00010E030E020E0042E04C0000F111F221F67
:1033F000331F0A94D2F760E070E0CB01D4FF0FC016
:103400006FE070E080E090E004C0660F771F881FD7
:10341000991F4A95D2F76095709580959095C695BD
:10342000C695C370602B712B822B932BC23049F051
:1034300058F4C13019F00E94AA1FA2CE0E94981F12
:103440009FCE0E94BC1F9CCE0E940D1F99CECF70B4
:10345000112329F08C2F0E94331F8D2FDBCE8D2F4F
:103460000E9459188C2F0E94541F8ACED23F89F196
:1034700060F4D03FC9F0D13F29F1112309F442C0D3
:10348000011166CE8C2F8F7121C0D33F39F1D43F0B
:10349000A1F7112369F1CF718C2F0E94331F63E0D4
:1034A0008C2F0E943B216CCE112341F0053008F097
:1034B00067CE8C2F8F710E94771F62CE063008F086
:1034C0005FCEF7CF8C2F8F71112369F20E94331FCB
:1034D00057CE8C2F8F711123C9F3C5CF112329F03B
:1034E0008C2F8F710E941E1F4BCE0E94191F48CE39
:1034F00081E00E945021023008F442CE82E00E9416
:1035000050213ECE002359F0D93309F0B2CE8FEFCF
:1035100097EEE3E081509040E040E1F7A8CE8C2F99
:103520008F71A1CF4C2F4F706D2FC6010E94FA06EC
:103530000E94491E25CE111123CECF70C230B1F0AA
:1035400040F4CC2381F0C13009F01ACE0E949C12C5
:1035500017CEC43089F068F080E0C53009F010CE95
:103560000E947B130DCE0E9471120ACE0E94091395
:1035700007CE0E94251304CE81E0F2CF4C2F4F706E
:103580006D2FC6010E94FD06FBCDDF91CF911F91EB
:103590000F91FF90EF90DF90CF90BF9008950F9321
:1035A0001F93CF93DF93EC018B819C81892B29F0B2
:1035B0008881998189238F3F29F4DF91CF911F91D1
:1035C0000F910895CE010E94A3068823B1F368816C
:1035D00079818A810E9470208C010E94CE1F0E94F6
:1035E000D01EB801CE01DF91CF911F910F910C94A5
:1035F00060180E94D9200E94E9200E9405210E94A3
:103600008D260E94692590E080E00E942C1690E0B3
:1036100080E00C9442160E94A2200C94F91A0E9499
:10362000C9200C940B1BE92FE295EF70E250EE30AD
:1036300070F4F0E0EF5AFD4C0C94D031803F19F05B
:1036400020F4883E20F481E00895843FE1F380E097
:103650000895883EC0F3813FD1F7F5CF93FB8827CB
:1036600080F908950E9466200C94131BCF93DF937A
:1036700000D000D00F92CDB7DEB70F900F900F9013
:103680000F900F90DF91CF910895CF93DF9300D0EB
:1036900000D000D0CDB7DEB726960FB6F894DEBFC7
:1036A0000FBECDBFDF91CF9108951F93CF93DF93CE
:1036B000C091F50116E08091F6018C1304C0DF91F2
:1036C000CF911F910895D0E01C9FF0011D9FF00D38
:1036D0001124E950FE4F40815181628173818481C0
:1036E00095810E94451B2196C770E5CF4091270226
:1036F000509128026091290270912A0280912B0238
:1037000090912C020C94451B1F93CF93DF938091D3
:103710002C02807FC1F4809129028823A1F080913E
:10372000F501C091F6016091270270912802409145
:103730002A0250912B02D62FD723DA01A095B095FB
:1037400016E0C81304C0DF91CF911F91089590E057
:103750004115510511F0DF3F31F401968770F1CF2B
:103760002A0F3B1F17C0189FF001199FF00D11245D
:10377000E950FE4F21812713F0CF20812613EDCF92
:1037800022812111EACF238134812417350740F3A8
:10379000241B350B283C310500F720912C022F709B
:1037A000206120932C0226E0289FF001299FF00D34
:1037B0001124E450FE4F80818F708061808387E206
:1037C00092E00E94CF1ADF91CF911F910C94551B6C
:1037D000BF92CF92DF92EF92FF920F931F93CF93FE
:1037E000DF93CDB7DEB761970FB6F894DEBF0FBE9B
:1037F000CDBF8C0185E0F801DE011D9601900D9290
:103800008A95E1F7D8014C9111965C911197129627
:10381000EC90129780912A0290912B02009709F464
:103820007FC12091270230912802622F63236F3FCE
:1038300009F476C11396CD90DC90B0902902BB209C
:1038400009F411C1C816D906D0F1F601E81BF90B2D
:10385000CF01FF24F394883C910508F0F12C80916E
:103860002C02982F907FFF2009F4B8C091117FC0DF
:10387000FE2C351329C0241327C0E11025C08F70FA
:10388000806180932C020E94761B87E292E00E9466
:10389000CF1A80912C02D80115968C938F2D6196AA
:1038A0000FB6F894DEBF0FBECDBFDF91CF911F9151
:1038B0000F91FF90EF90DF90CF90BF90089580958B
:1038C00090958C0D9D1DC5CFCD2829F0852F842383
:1038D0008F3F09F041C180E0B82FB170DB2E80FF2F
:1038E0003CC08091F5012091F60136E0821315C0AD
:1038F0004D875E878D859E850E946620292F2295A3
:103900002F702230F0F0243018F59F70F1F0F8019C
:103910009581907FD1F4D12C1EC090E0389FF001AA
:10392000399FF00D1124E950FE4F6181651306C0E7
:103930006081641303C06281E6120FC00196877034
:10394000D5CF9F7011F0882331F3805E883018F353
:10395000C8010E94CF1AFD2CA1CFEE2009F49ECF02
:1039600080912C02816080932C02F12C97CF35132B
:1039700006C0241304C0D801EE2009F49AC04D8774
:103980005E878D859E850E94321B882319F1EE206B
:1039900009F180912C02803270F020912702309141
:1039A000280238872F831986DB86CA868C87CE014A
:1039B00007960E94CF1A86E0F801A7E2B2E00190D4
:1039C0000D928A95E1F70E94841B0E94761BFF24CA
:1039D000F39464CFC8010E94CF1AF9CF911113C09C
:1039E0007C2DD98AC88A6E2D89890E94361B87E270
:1039F00092E00E94CF1A86E0E7E2F2E0DF011D923A
:103A00008A95E9F763C0351312C0241310C0E11082
:103A10000EC0F8018583C8010E94CF1AE7E2F2E0E8
:103A200086E0DF011D928A95E9F7FB2C37CF4D87A1
:103A30005E878D859E850E94321B882359F2EE2079
:103A400049F280912C02803208F4B5CF20912702F0
:103A5000309128023A8329831B82DD82CC828E83B7
:103A6000CE010196A6CFC816D90698F1F601E81B3B
:103A7000F90BCF01F12C883C910508F049C0FE2CD0
:103A8000EE2009F4A7CF351332C0241330C0809143
:103A90002C0280FD23C0982F907F01F1D80115964C
:103AA0008C931597903F39F0982F907F905F8F708F
:103AB000892B15968C93C8010E94CF1A86E0F801D5
:103AC000A7E2B2E001900D928A95E1F70E94761B81
:103AD000E5CE809590958C0D9D1DCCCF86E0F801AC
:103AE000A7E2B2E001900D928A95E1F7D7CE4D871B
:103AF0005E878D859E850E94321B81115CCF8091EF
:103B00002C02816080932C02C8010E94CF1AC6CE7D
:103B10007C2DD98AC88A6E2D89890E94361B6BCF6D
:103B2000EE2009F457CF4D875E878D859E850E94D4
:103B3000321BF82E882309F44DCF86E0F801A7E266
:103B4000B2E001900D928A95E1F787E292E00E943F
:103B500068170E94841BBACF81E08E25BDCE1F93CB
:103B6000CF93DF93CDB7DEB72C970FB6F894DEBFB7
:103B70000FBECDBF4F83588769877A878B879C8715
:103B8000CE0107960E94E81B882369F08A859B85F1
:103B9000892B39F04F815885842F85238F3F09F079
:103BA00071C016E05FC086E0FE013796DE01119617
:103BB00001900D928A95E1F78A859B85892B89F37F
:103BC00088859F8189238F3F61F32091F60130E042
:103BD000C9010196877099274091F5014817190688
:103BE00071F40E940F1B1092F6011092F50186E00D
:103BF000E7E2F2E0DF011D928A95E9F7D2CF96E085
:103C0000929FD001939FB00D1124A950BE4FFE0189
:103C1000319601900D929A95E1F78093F6010E94FA
:103C2000551BBFCF819FC001112489509E4F0E9418
:103C3000E81B8823E9F0E091F5011E9FF0011124B3
:103C4000E950FE4F40815181628173818481958169
:103C50000E94451B8091F50190E00196877099279D
:103C60008093F5018091F5019091F6018913DACFE7
:103C70002C960FB6F894DEBF0FBECDBFDF91CF916B
:103C80001F91089569857A858B859C850E94451BC7
:103C900088CFEF92FF920F931F93CF93DF938C0106
:103CA000892B81F0F12CEE24E394E8012196F801B0
:103CB0008491843770F4843008F05FC08130B1F0B3
:103CC0008230A1F1DF91CF911F910F91FF90EF9082
:103CD0000895853709F44CC008F43DC09CE7980F5F
:103CE000903780F78F770E94E91749C00E5F1F4F0A
:103CF000FE01849190E2980F983060F48770FE2D59
:103D000001C0FF0F8A95EAF78F2F0E94DC200E94E6
:103D1000052102C00E946D178F2D815030F2EFE90E
:103D2000FFE03197F1F700C00000F7CF0E5F1F4FA3
:103D3000FE01849190E2980F983050F48770FE2D28
:103D400001C0FF0F8A95EAF78F2F0E94E220DFCF94
:103D50000E94E917E1CF0E5F1F4FFE01C491C150D1
:103D6000D8F28FE99FE00197F1F700C00000F7CF8C
:103D70000E5F1F4FFE01F490CFCF0E946D178E0192
:103D8000CBCF08950C94C11E0E94C21E60936302A3
:103D90007093640280936502909366020C94F91A02
:103DA00008950C94C41E0F931F9300916302109109
:103DB00064022091650230916602602B712B822B88
:103DC000932B1F910F910C94C41E0F931F9300917E
:103DD00063021091640220916502309166026023B3
:103DE0007123822393231F910F910C94C41E0F9370
:103DF0001F9300916302109164022091650230913B
:103E0000660260277127822793271F910F910C94D8
:103E1000C41E0C94C11E0C94091F0E940B1F6093BA
:103E20005F027093600280936102909362020C942F
:103E3000F91A60E070E0CB010C940D1F0F931F93F3
:103E400041E050E060E070E08A019B0104C0000F97
:103E5000111F221F331F8A95D2F7C901B8011F9184
:103E60000F910C940D1F0F931F9341E050E060E001
:103E700070E004C0440F551F661F771F8A95D2F764
:103E800080915F0290916002A0916102B091620204
:103E90008A019B01082B192B2A2B3B2BC901B80146
:103EA0001F910F910C940D1F0F931F9341E050E051
:103EB00060E070E004C0440F551F661F771F8A95AD
:103EC000D2F7CB01BA0160957095809590950091DD
:103ED0005F021091600220916102309162026023C2
:103EE0007123822393231F910F910C940D1F0F9325
:103EF0001F9341E050E060E070E004C0440F551FA4
:103F0000661F771F8A95D2F780915F0290916002B9
:103F1000A0916102B09162028A019B0108271927D2
:103F20002A273B27C901B8011F910F910C940D1F3F
:103F30000F931F9300915F02109160022091610224
:103F400030916202602B712B822B932B1F910F916A
:103F50000C940D1F0F931F9300915F02109160024C
:103F600020916102309162026023712382239323A6
:103F70001F910F910C940D1F0F931F9300915F02DF
:103F800010916002209161023091620260277127D6
:103F9000822793271F910F910C940D1F0895990F5D
:103FA000990F990F890F982F977041E001C0440F26
:103FB0009A95EAF786958695869595E0899FF00112
:103FC0001124E35DFD4F30E020E070E05191DF010E
:103FD0001197CB01022E02C0969587950A94E2F7BD
:103FE000817081958527842385278C932F5F3F4F90
:103FF0002530310559F70895990F990F990F890FB9
:10400000982F977086958695869525E0829FF0017A
:104010001124E35DFD4F50E040E080E0219130E06D
:10402000092E02C0369527950A94E2F721703327AE
:10403000042E01C0220F0A94EAF7822B4F5F5F4FD4
:104040004530510559F70895BF92CF92DF92EF9214
:10405000FF920F931F93CF93DF938C01C0905F0269
:10406000D0906002E0906102F09062028091630261
:1040700090916402A0916502B0916602C82AD92A83
:10408000EA2AFB2ACFE1D0E0BC2ED701C6010C2ED4
:1040900004C0B695A795979587950A94D2F780FDA9
:1040A0000EC0219788F7B12C8B2DDF91CF911F91F6
:1040B0000F91FF90EF90DF90CF90BF900895B801DF
:1040C0008C2F0E941B07019761F3EECFCF93DF93F4
:1040D000EC010E942420BE01DF91CF910C941B07BC
:1040E0001F93CF93DF93EB019091F401992331F06B
:1040F000CB01DF91CF911F910C946620882379F03A
:10410000CB010E942420182F682FCE010E94CF1FC0
:10411000BE01812FDF91CF911F910C941B07CB0122
:104120000E94FC1F182FF4CF682F809110019091EE
:1041300011010C94B822682F809110019091110107
:104140000C94C32280911001909111010C94CE2205
:104150008091670285958595859508958091670280
:104160008770089590916702977081E009F480E06C
:10417000089580918B02089590918B02892B8093F2
:104180008B020895809590918B02982390938B02D7
:10419000089510928B02089590918A02892B809342
:1041A0008A020895809590918A02982390938A02BA
:1041B000089510928A02089590918902892B809324
:1041C000890208958095909189029823909389029D
:1041D00008951092890208958091680208950895C3
:1041E0000C94EF2090916802981721F08093680258
:1041F0000C94F020089580916802882329F0109291
:10420000680280E00C94F0200895E0911001F09194
:10421000110180918B028083E0911001F0911101D6
:10422000808190918A02892B8083E0911001F09126
:104230001101808190918902892B8083909168027D
:10424000992381F0E0911001F09111018081892B77
:10425000808380911001909111010E94322281117E
:104260000E94FB2080911001909111010C94C315C4
:1042700008950C94382198E0899F90011124622BB5
:10428000609367020E94331F809167028595859530
:1042900085950C9439211092670280E00C943921A5
:1042A000909167028095892380936702282F277059
:1042B00071F4282F082E000C330B9217130639F0D7
:1042C0008595859585950E94541F0C944B210895E2
:1042D0009093CD018093CC010895829590E09C014C
:1042E000220F331F220F331F2C7C959587959595B0
:1042F00087958373282B30E0C901880F991F8A7A2C
:10430000359527952575822B089590E080E00E94D1
:10431000F13121E08C3E9E4F09F020E0822F08957C
:1043200082E090E00C94E33183E090E00C94E33180
:10433000CF9384E090E00E94E331C82F81E290E0C7
:104340000E94E331982F8C2FCF910895CF93C92FDE
:10435000682F84E090E00E94F7316C2F81E290E0BA
:10436000CF910C94F73186E090E00C94E331682F04
:1043700086E090E00C94F731AB01BC018FE090E057
:104380000C940932AB01BC0183E190E00C9409323A
:1043900060E070E0CB010C94C22160E070E0CB01E2
:1043A0000E94BC210C94C8216CEE7EEF90E080E06E
:1043B0000E94153260E082E090E00E94F73160E0F8
:1043C00083E090E00E94F731109263021092640241
:1043D000109265021092660260E084E090E00E9414
:1043E000F73160E081E290E00E94F73160E085E023
:1043F00090E00E94F73160E086E090E00E94F731A3
:104400006FEF87E090E00E94F73140E050E0BA01A2
:1044100088E090E00E94093260E08DE090E00E9428
:10442000F73140E050E0BA0188E190E00E940932A3
:1044300060E087E190E00E94F73140E050E0BA018F
:104440008CE190E00E94093260E080E290E00E94FE
:10445000F7310C94CD210C94D421682F8EE090E09C
:104460000C94F731FC01329680912201882321F0CF
:10447000809114039EE187FF96E080E0915008F45C
:10448000089521912223D1F38F5FF8CF9C01FC0185
:1044900032969FEF80E04191461751F09F3F19F40B
:1044A000411101C0982F8F5F8630A9F79F3F09F413
:1044B0000895290F311D97FD3A95F90162830895FA
:1044C000FC01329608962191261303C0DF01119753
:1044D0001C92E817F907B9F70895E62FE695E695D7
:1044E000E695EE3170F4E80FF92FF11D677021E0C9
:1044F00030E001C0220F6A95EAF78281822B828325
:10450000089580918C0280FF0CC01F926F938FEEF4
:1045100097E09F938F930E940F060F900F900F903C
:104520000F900895E62FE695E695E695EE3178F43E
:10453000E80FF92FF11D677021E030E001C0220F74
:104540006A95EAF720958281282322830895809135
:104550008C0280FF0CC01F926F9381ED97E09F93B8
:104560008F930E940F060F900F900F900F90089559
:1045700020912201222329F02091140327FD0C947D
:104580006D220C94462220912201222329F02091B1
:10459000140327FD0C9492220C946022FC013296A5
:1045A00080912201882351F08091140387FF06C077
:1045B0008EE1DF011D928A95E9F7089586E0F9CF33
:1045C000089508950C94E1220E94E22280911A033A
:1045D000843061F110928D0288E190E020E40FB602
:1045E000F894A895809360000FBE2093600080E04F
:1045F0000E94250680E00E948B060E94E22283B77B
:10460000817F846083BF83B7816083BF78948895FE
:1046100083B78E7F83BF0FB6F894A8958091600012
:10462000886180936000109260000FBE0895089525
:10463000CF930E94E0220E94D1090E941723C0E07C
:104640008C2F0E943B09811105C0CF5FCA30C1F792
:10465000CF91089581E0FCCF08950C942C230E9403
:104660000F1B0E9455120E94B7150E948B060C94D6
:104670002D231F921FB61F9211248F939F93AF93E8
:10468000BF9380918D02811113C08091100390918E
:104690001103A0911203B09113034196A11DB11D06
:1046A0008093100390931103A0931203B09313030C
:1046B000BF91AF919F918F911F901FBE1F90189532
:1046C00082E084BD93E095BD9AEF97BD80936E0024
:1046D00008952FB7F8948091100390911103A09141
:1046E0001203B09113032FBF0895CF92DF92EF9280
:1046F000FF920F931F932FB7F8944091100350919E
:10470000110360911203709113032FBF6A017B01A3
:10471000EE24FF248C0130E020E0C016D106E20632
:10472000F30650F0481B590BCA011F910F91FF90DF
:10473000EF90DF90CF90089541505109F3CF7894D6
:104740001F921FB61F9211248F939F93AF93BF9315
:104750008091100390911103A0911203B091130363
:104760000196A11DB11D8093100390931103A09396
:104770001203B0931303BF91AF919F918F911F903C
:104780001FBE1F90189581E08093E00080E2809327
:10479000D8001092C9008FE19EE40197F1F700C0A4
:1047A000000087E090EBDC018093230390932403C7
:1047B000A0932503B093260388E19CE00FB6F894FC
:1047C000A895809360000FBE90936000FFCF0E9479
:1047D0008521811102C00E942B220E94902180938A
:1047E0008C020E94982190931503809314030E94D9
:1047F0009421682F70E090E080E00C94D11E8091AD
:10480000910280FF12C06091150185E0689FB001A0
:104810001124759567957595679560387105A8F5AC
:1048200061157105A1F1862F089581FF09C060917E
:10483000150185E0689FB001112475956795EDCF4E
:104840006091150182FD0AC0809190028823D1F009
:104850009091140160911501891728F085E0689FF7
:10486000B0011124DACF869FB001112485E0869F24
:104870009001879F300D1124692F70E0C9010E94BB
:10488000BC31CBCF65E070E0CECF8FE7089581E0FB
:1048900008958091910280FF0CC06091130170E037
:1048A00075956795759567956115710549F1862F21
:1048B000089581FF06C06091130170E075956795BA
:1048C000F3CF6091130182FD0BC090919002992368
:1048D000A1F06091120180911301961738F0682FB2
:1048E00070E06038710500F38FE70895899FC0017B
:1048F000112470E00E94BC31F4CF61E070E0D7CFAA
:1049000081E00895803F31F40E94FF2381958093D8
:1049100095020895813F19F40E94FF23F8CF823F4A
:1049200031F40E94FF238195809394020895833F80
:1049300019F40E94FF23F8CF893F29F40E944924EB
:104940008093960208958A3F21F40E94492481951C
:10495000F7CF8B3F31F40E944924819580939702D1
:1049600008958C3F19F40E944924F8CF843F31F414
:10497000809193028160809393020895853F21F492
:10498000809193028260F7CF863F21F48091930259
:104990008460F1CF873F21F4809193028860EBCF50
:1049A000883F21F4809193028061E5CF8D3F31F4FF
:1049B0008091910281608093910208958E3F21F44D
:1049C000809191028260F7CF8F3FB9F78091910279
:1049D0008460F1CF90919402803F41F480919502E0
:1049E00087FD10929502992371F00895813F29F473
:1049F000809195021816ACF3F6CF823F81F497FFB1
:104A0000F2CF109294028091950290919602892B98
:104A100090919702892B49F7109290020895833F55
:104A200019F4191674F3DFCF893F39F48091960297
:104A30001816CCF610929602D6CF8A3F29F48091B0
:104A4000960287FFD0CFF6CF8B3F39F48091970243
:104A500087FFC9CF10929702C6CF8C3F29F480916F
:104A600097021816BCF3BFCF843F31F480919302B4
:104A70008E7F80939302B7CF853F21F4809193027C
:104A80008D7FF7CF863F21F4809193028B7FF1CF0A
:104A9000873F21F480919302877FEBCF883F21F4F9
:104AA000809193028F7EE5CF8D3F31F4809191020A
:104AB0008E7F8093910297CF8E3F21F48091910257
:104AC0008D7FF7CF8F3F09F08ECF809191028B7F42
:104AD000F0CF80918C0283FF7EC084E398E00E9437
:104AE0007605809193021F928F938FE298E09F93B7
:104AF0008F930E940F068DE298E00E9476058091C8
:104B00009402282F082E000C330B3F938F938AE2D8
:104B100098E09F938F930E940F0688E298E00E948E
:104B2000760580919502282F082E000C330B3F93B9
:104B30008F9385E298E09F938F930E940F0683E204
:104B400098E00E94760580919602282F082E000C8E
:104B5000330B3F938F9380E298E09F938F930E9453
:104B60000F068EE198E00E94760580919702282F2B
:104B7000082E000C330B3F938F938BE198E09F93AB
:104B80008F930E940F0688E198E00E94760580913D
:104B900090021F928F9385E198E09F938F930E94DC
:104BA0000F0683E198E00E947605809191021F92A2
:104BB0008F9380E198E09F938F930E940F068DE082
:104BC00098E00E9476058DB79EB74C960FB6F89484
:104BD0009EBF0FBE8DBF82E992E00E941E160E940A
:104BE000692390938F0280938E0208951F93CF9331
:104BF000DF9380918E0290918F020E947523AC0109
:104C0000909190022091160130E0911106C0209100
:104C100017018AE0289F900111244217530778F06A
:104C200020919402C0919502D09196021091970222
:104C3000211109C08C2F8D2B812B09F06AC0DF91C7
:104C4000CF911F9108959F3F19F09F5F909390021D
:104C5000121624F40E94FF23809394028091940200
:104C600087FF05C00E94FF238195809394021C1644
:104C700024F40E94FF23809395028091950287FF80
:104C800005C00E94FF238195809395023091940284
:104C90003323A1F020919502222381F045EB3403C8
:104CA000C0011124992369F19093940245EB2403E8
:104CB00090011124332349F1309395021D1624F4F9
:104CC0000E944924809396028091960287FF05C036
:104CD0000E944924819580939602111624F40E9423
:104CE0004924809397028091970287FF05C00E9414
:104CF0004924819580939702DF91CF911F910C9465
:104D0000692581E080939402D1CF81E08093950260
:104D1000D5CF9F3F09F099CFAACF86E0E2E9F2E034
:104D2000DF011D928A95E9F710929002109291028C
:104D300008958091BB0208959FB7F89410929A024B
:104D40009FBF90911A03943009F048C02091E90068
:104D50002F703091EC00932F917030FD90E8922BE2
:104D600023E02093E9002091EB0020FF34C0209144
:104D7000EE0027FF30C020919802222321F02091DD
:104D8000E80025FF28C01092980226E03091E80044
:104D900035FF14C08093F1008091E80085FD27C0A5
:104DA0008091E80080FFFCCF8091E8008E778093AF
:104DB000E8009F709093E90080E0089530911A0315
:104DC000343049F43091EB0035FD05C0215041F4F9
:104DD00081E0809398029F709093E9008FEF08958F
:104DE000EFE9FFE03197F1F700C00000CFCF8FB7B8
:104DF000F89421E020939A028FBFDBCFCF93DF930B
:104E000000D00F92CDB7DEB790911A03943019F508
:104E100089837B836A8382E08093E9008FEF90919E
:104E2000E800815095FD06C095ED9A95F1F70000D8
:104E30008111F5CF8091E80085FF0DC050E040E082
:104E400063E070E0CE0101960E94B5298091E800F0
:104E50008E778093E8000F900F900F90DF91CF91A5
:104E60000895CF93DF93EC010E949829823011F0CE
:104E7000843031F4BE0184E0DF91CF910C94FE26A2
:104E8000DF91CF910895BC0183E00C94FE26CF936F
:104E9000DF93EC010E949829823011F08430F9F4FC
:104EA00082E08093E9008FEF9091E800815095FDBA
:104EB00006C095ED9A95F1F700008111F5CF80912C
:104EC000E80085FF0CC050E040E066E070E0CE01F5
:104ED0000E94B5298091E8008E778093E800DF91E9
:104EE000CF910895CF93DF93EC010E9498298230EF
:104EF00011F08430B9F5809122018823B1F18091BD
:104F0000140387FF32C060E282E08093E9008FEFF4
:104F10009091E800815095FD06C095ED9A95F1F7C6
:104F200000008111F5CF8091E80085FF1BC08091C2
:104F3000220170E050E040E0811104C050E040E008
:104F400068E070E0CE010E94B5298091E8008E777C
:104F50008093E80080E2FE01ABE9B2E001900D929F
:104F60008A95E1F7DF91CF91089568E081E0CDCF98
:104F70008CE798E00E94760580911903811109C0A1
:104F80000E94452B0E94A22B8091E20084608093B6
:104F9000E200089588E798E00E94760510921903D0
:104FA000089584E798E00C94760580E798E00C94E7
:104FB00076058CE698E00E9476050C942F232091CC
:104FC00099022F5F822F62E30E948E31992319F09C
:104FD0002093990208951092990280919A02882351
:104FE000F1F080911A038430C1F49091E9009F7030
:104FF0002091EC00822F817020FD80E8892B93E0C6
:105000009093E9009091EB0090FF04C09091EE0026
:1050100097FD08C08F708093E90010929A0208955E
:105020001092F1009091E80095FDFACF9091E80080
:1050300090FFF0CF9091E8009E779093E800EACF40
:1050400042E061EC81E00E94C12A42E261EC82E030
:105050000E94C12A42E261EC83E00C94C12A809153
:105060001C03833009F45FC030F48130C1F1823019
:1050700009F49BC008958A3009F487C08B3009F485
:105080006DC0893009F04EC080911B03813209F058
:1050900049C080911F0390912003029708F042C0FD
:1050A0008091E800877F8093E8008091E80082FF8C
:1050B00035C09091F3008091F200029729F480911D
:1050C000F1008B7F813021F48091F1008093BB024D
:1050D0008091E8008B778093E8000C94F52A80910A
:1050E0001B03813AF9F48091E800877F8093E80000
:1050F00080911F0390912003892B61F460E28BE97A
:1051000092E070E00E94042A8091E8008B778093FF
:10511000E800089560E090E080E0F3CF80911A030A
:105120008111C3CF089580911B03813AD9F78091F3
:105130001F0390912003892BA9F78091E800877FB6
:105140008093E8008091E80080FFFCCF80912201ED
:105150008093F1008091E8008E77BDCF80911B0392
:10516000813201F780911F0390912003892BD1F6A2
:105170008091E800877F8093E8000E94F52A809163
:105180001D03809322010C940F1B80911B0381321D
:1051900049F68091E800877F8093E8000E94F52A15
:1051A00080911E038093BC02089580911B03813A75
:1051B00009F0B8CF8091E800877F8093E800809164
:1051C000E80080FFFCCF8091BC02C2CF84B7877F0C
:1051D00084BF0FB6F894A895809160008861809391
:1051E0006000109260000FBE80E890E00FB6F89467
:1051F00080936100909361000FBE0E9466160E942A
:10520000452B0E94A22B8091E20084608093E200F3
:105210008CE996E20E94682178940E942A2E0E94CE
:105220006E1688E191E00E94B2158BE598E00E942D
:10523000760580911A03853019F00E94A216F9CFE5
:1052400087E598E00E9476050E94E4228091180389
:10525000882379F30E941823882359F30E949F29F9
:10526000E8CF0C943329292F33272330310521F13E
:1052700068F42130310509F449C02230310509F4C0
:105280004AC090E080E030E020E029C021323105C2
:1052900081F122323105A9F76330710590F7FB01E6
:1052A000EE0FFF1FE154FE4F2081318164547E4F89
:1052B000FB01808190E013C099278130910599F01E
:1052C000009741F08230910589F00397D1F6E0E82C
:1052D000F8E002C0E2EBF8E0849190E09F01FA016F
:1052E000318320830895ECE9F8E0F6CFE6E8F8E0B2
:1052F000F3CF6330710528F6660F771FFB01EB5380
:10530000FE4F2081318189E090E0E9CF82E190E099
:1053100021E139E0E4CF8BE590E026EB38E0DFCF08
:1053200080911A03843011F482E0089581E0089599
:105330008091BD02811102C00C949029089580E1F2
:1053400089BD82E189BD09B400FEFDCF8091D800FE
:105350008F7D8093D8008091E00082608093E00090
:105360008091E00081FDFCCF0895AF92BF92CF9273
:10537000DF92FF920F931F93CF93DF936C01EB01AA
:105380008A010E94142BF82E811123C001151105EA
:1053900039F0F80180819181C81BD90BC80ED91E44
:1053A000B12CA12C2097A9F08091E80085FD22C0A6
:1053B0008091E8008E778093E80001151105A1F037
:1053C000F80180819181A80EB91EB182A08285E08A
:1053D000F82E8F2DDF91CF911F910F91FF90DF90CD
:1053E000CF90BF90AF9008950E94142B8823D1F2E4
:1053F000F82EEFCFF60181916F018093F100219794
:10540000FFEFAF1ABF0ACECFFC018091210390912C
:10541000220386179707A0F06115710529F4909172
:10542000E8009E779093E80090E06115710551F4D3
:10543000911108C08091E80082FF34C080E0089597
:10544000BC01F2CF80911A038823C1F18530C1F1EC
:105450008091E80083FD30C08091E80082FDEACFB2
:105460008091E80080FFE1CF8091F3002091F2006D
:10547000382F6115710519F02830310558F091E089
:105480002830310509F090E02091E8002E77209334
:10549000E800CBCF81918093F100615071092F5FBB
:1054A0003F4FE7CF80911A03882341F0853041F0C8
:1054B0008091E80083FFBECF81E0089582E00895E7
:1054C00083E00895FC0180912103909122038617C7
:1054D0009707A0F06115710529F48091E8008E7797
:1054E0008093E80090E06115710551F4911108C0B6
:1054F0008091E80082FF35C080E00895BC01F2CFC2
:1055000080911A038823C9F18530C9F18091E800A0
:1055100083FD31C08091E80082FDEACF8091E800F0
:1055200080FFE1CF8091F3002091F200382F6115C8
:10553000710519F02830310558F091E02830310517
:1055400009F090E08091E8008E778093E800CBCF5F
:1055500084918093F1003196615071092F5F3F4F24
:10556000E6CF80911A03882341F0853041F0809185
:10557000E80083FFBDCF81E0089582E0089583E0D5
:105580000895982F973028F08F708093E90081E07C
:1055900008959093E900242F762F50E0981731F06A
:1055A0007091EC002091ED005091F00021FD02C0BF
:1055B0009F5FE8CF3091EB003E7F3093EB0030915E
:1055C000ED003D7F3093ED003091EB003160309382
:1055D000EB007093EC002093ED005093F0002091CD
:1055E000EE0027FDE5CF80E0089580911B0387FF43
:1055F00013C08091E80082FF06C08091E8008B779D
:105600008093E80004C080911A038111F2CF0895BD
:1056100080911A038823D9F38091E80080FFF8CFA6
:105620008091E8008E77ECCF2091E4003091E50086
:1056300095E6A9012091EC00822F817020FF06C021
:105640008091E80080FF06C080E008952091E80086
:1056500022FD1AC080911A03882389F0853089F0D1
:105660008091EB0085FD0FC02091E4003091E500B2
:1056700042175307F9F29150E1F684E0089582E071
:10568000089583E0089581E008950E94B32B0E945D
:10569000BB2BE0EEF0E0808181608083E8EDF0E0FC
:1056A00080818F77808319BCA7EDB0E08C918E7FCD
:1056B0008C9380818F7E80831092190308950F93BD
:1056C0001F93CF93DF930E94B32B0E94BB2BC8ED97
:1056D000D0E088818F7788838881806888838881FB
:1056E0008F7D888319BC10921A03109216031092B2
:1056F00018031092170300EE10E0F80180818B7FF1
:10570000808388818160888342E060E080E00E943D
:10571000C12AE1EEF0E080818E7F8083E2EEF0E04E
:10572000808181608083808188608083F8018081AE
:105730008E7F8083888180618883DF91CF911F91E4
:105740000F910895E8EDF0E080818F7E8083E7ED92
:10575000F0E080818160808384E082BF81E080937B
:1057600019030C945F2BE8EDF0E080818E7F80833D
:105770001092E20008951092DA001092E10008956C
:105780001F920F920FB60F9211242F933F934F93B6
:105790005F936F937F938F939F93AF93BF93EF9399
:1057A000FF938091E10082FF0BC08091E20082FFB5
:1057B00007C08091E1008B7F8093E1000E94DF278A
:1057C0008091DA0080FF19C08091D80080FF15C059
:1057D0008091DA008E7F8093DA008091D90080FF7B
:1057E00096C080E189BD82E189BD09B400FEFDCF8C
:1057F00081E080931A030E94B8278091E10080FF26
:1058000019C08091E20080FF15C08091E2008E7F78
:105810008093E2008091E20080618093E2008091B9
:10582000D80080628093D80019BC85E080931A0369
:105830000E94D5278091E10084FF2BC08091E20077
:1058400084FF27C080E189BD82E189BD89B5982F99
:10585000917080FFFBCF8091D8008F7D8093D8001E
:105860008091E1008F7E8093E1008091E2008F7E45
:105870008093E2008091E20081608093E200809159
:105880001603882309F449C084E080931A030E9418
:10589000D9278091E10083FF29C08091E20083FF36
:1058A00025C08091E100877F8093E10082E08093B2
:1058B0001A03109216038091E1008E7F8093E1001D
:1058C0008091E2008E7F8093E2008091E20080610F
:1058D0008093E20042E060E080E00E94C12A809173
:1058E000F00088608093F0000E94D127FF91EF9133
:1058F000BF91AF919F918F917F916F915F914F91E8
:105900003F912F910F900FBE0F901F90189519BCCB
:1059100010921A030E94CA2770CF8091E30087FD7E
:1059200093E090931A03B3CF1F920F920FB60F928A
:1059300011242F933F934F935F936F937F938F9394
:105940009F93AF93BF93CF93DF93EF93FF93D09148
:10595000E900DF708091EC00C82FC17080FDC0E8C5
:105960001092E9008091F000877F8093F000789496
:105970000E94D82C1092E9008091F00088608093FA
:10598000F000CD2BCF70C093E900FF91EF91DF9134
:10599000CF91BF91AF919F918F917F916F915F91C7
:1059A0004F913F912F910F900FBE0F901F90189520
:1059B0001F93CF93DF93CDB7DEB7AA970FB6F894B6
:1059C000DEBF0FBECDBF8BE193E02091F100FC0163
:1059D0002193CF01F3E083329F07B9F70E942F286C
:1059E0008091E80083FF1EC180911B0390911C03EE
:1059F0009A3008F017C1E92FF0E0E15AFD4C0C9401
:105A0000D031803899F0823809F00CC180911F03A1
:105A10008F70873008F006C18093E9008091EB0019
:105A200085FB882780F91092E90006C08091170352
:105A300090911803911182609091E800977F909364
:105A4000E8008093F1001092F1008091E8008E77D9
:105A5000E5C0882309F4D3C0823009F0E3C0809107
:105A60001D038111D6C080911F038F702FEF280F67
:105A7000263008F0D7C08093E9002091EB0020FF8A
:105A8000C8C0933031F48091EB0080628093EB00CA
:105A9000C0C09091EB0090619093EB0021E030E06A
:105AA00001C0220F8A95EAF72093EA001092EA00DB
:105AB0008091EB008860EACF8111B4C010911D0382
:105AC0001F778091E3008078812B8093E3008091A1
:105AD000E800877F8093E8000E94F52A8091E80023
